:100000000C941F100C9447100C9447100C9447103C
:100010000C9447100C9447100C9447100C94471004
:100020000C9447100C9447100C94E8230C9457241C
:100030000C9447100C9447100C9447100C944710E4
:100040000C9447100C9447100C9447100C944710D4
:100050000C9447100C9447100C9447100C9489266C
:100060000C9447100C9447100C9447100C944710B4
:100070000C9447100C9447100C9447100C944710A4
:100080000C9447100C9447100C9447100C94471094
:100090000C9447100C9447100C9447100C94471084
:1000A0000C9447100C94482A0C9447100401038FB9
:1000B00080C000400000000000000000FF40404001
:1000C000404040404040404040FF40404040404071
:1000D000404040404040FF40404040404040404061
:1000E0004040400101030301010303041F05020313
:1000F00000F9060B0C110000C300000000004000D6
:10010000000000000064000000000080000000010A
:10011000000061000000000010020000000000620A
:10012000000000000020000300000000600000004C
:100130000000030301010303041F101800F0F0F88E
:10014000F0F8F8FCF8FCFCFEFCFEFEFFFEFFFCFEF7
:10015000FCFEF8FCF8FCF0F8F0F800F0006363FF38
:100160007FFFFFFF9FFFE7FFF9FFFFFFFFFFFFFF9D
:10017000FFFFFFFFFFFF7FFF7FFF007F000E0C1ED2
:100180000C1F183F1A3F357F357F6BFF6BFF357FA4
:10019000357F1A3F183F0C1F0C1E000E00F0F0F8C0
:1001A000F0F8F8FCF8FCFCFEFCFEFEFFFEFFFCFE97
:1001B000FCFEF8FCF8FCF0F8F0F800F0007F7FFFA0
:1001C0007FFFFFFFFFFFFFFFFFFFFFFFFFFFF9FFC5
:1001D000E7FF9FFFFFFF7FFF63FF0063000E0C1E22
:1001E0000C1F183F1A3F357F357F6BFF6BFF357F44
:1001F000357F1A3F183F0C1F0C1E000E00F0F0F860
:10020000F0F8F8FCF8FCFCFEFCFEFEFFFEFF7CFEB6
:100210007CFE38FCB8FC10F8F0F800F0007F7FFF9F
:100220007FFFF9FFE7FF9FFFFFFFFFFFF0FFF9FFF1
:10023000F8FFFCFFFCFF7EFF63FF0063000E0C1E57
:100240000C1F183F1A3F357F357F6BFF6BFF357FE3
:10025000357F1A3F183F0C1F0C1E000E00F0F0F8FF
:1002600010F8B8FC38FC7CFE7CFEFEFFFEFFFCFEB6
:10027000FCFEF8FCF8FCF0F8F0F800F0006363FF17
:100280007EFFFCFFFCFFF8FFF9FFF0FFFFFFFFFF21
:100290009FFFE7FFF9FF7FFF7FFF007F000E0C1E2F
:1002A0000C1F183F1A3F357F357F6BFF6BFF357F83
:1002B000357F1A3F183F0C1F0C1E000E008000C037
:1002C00080C080FCF8FCFCFEFCFEFEFFCEFFE0FEE2
:1002D000F0F878FC78FC30F8F0F800F0007F7FFF51
:1002E0007FFFF9FF87FFFFFFFFFFFFFFF1FFF8FF31
:1002F000F8FFFCFFFCFF7EFF63FF0063000E0C1E97
:100300000C1F081F0A3F357F357F6BFF6BFF357F62
:10031000357F0A3F081F0C1F0C1E000E180800C076
:10032000C0F0F0F830F8183C0C1E0C1E0C1E060F26
:10033000060F060F060F060F060F060F060F0C1E00
:100340000C1E0C1E183C30F8F0F8C0F000C0000382
:10035000030F0F1F0C1F183C30783078307860F096
:1003600060F060F060F060F060F060F060F03078B5
:1003700030783078183C0C1F0F1F030F0003101843
:1003800000F0F0F8F0F8F8FCF8FCFCFEFCFEFEFFD4
:10039000FEFFFCFEFCFEF8FC80F800800000000080
:1003A00000FFFFFFFFFF7FFFBFFF3FFFFFFFFFFFDC
:1003B000FFFFFFFFFFFFFFFFFFFFFFFFFCFF00FC52
:1003C000000F0F1F0F1F1C3F1D3F3E7F3F7F7FFF12
:1003D0007FFF3F7F3F7F1F3F1F3F0F1F0F1F000FFC
:1003E00000000000008080F8F8FCFCFEFCFEFEFF30
:1003F000FEFFFCFEFCFEF8FCF8FCF0F8F0F800F064
:1004000000FCFCFFFFFFFFFFFFFFFFFFFFFFFFFF01
:10041000FFFFFFFF3FFFBFFF7FFFFFFFFFFF00FF6B
:10042000000F0F1F0F1F1F3F1F3F3F7F3F7F7FFFAB
:100430007FFF3F7F3E7F1D3F1C3F0F1F0F1F000FA1
:10044000000000000000008080C0C0E0C0E0E0F0DC
:10045000E0F0F0F8F0F8F8FC78FC70F8F0F800F054
:1004600000E0E0F8F8FCFCFF7FFF7FFFFFFFFFFFED
:10047000FFFF41FF6CFF20FF36FF10FFFFFF00FF73
:10048000000F0F1F0F1F1F3F1C3F3B7F387F7FFF59
:100490007FFF207F377F163F1A3F081F0F1F000F77
:1004A00000F0F0F870F878FCF8FCF0F8F0F8E0F004
:1004B000E0F0C0E0C0E080C000800000000000006C
:1004C00000FFFFFF10FF36FF20FF6CFF41FFFFFF23
:1004D000FFFFFFFF7FFF7FFFFCFFF8FCE0F800E07D
:1004E000000F0F1F081F1A3F163F377F207F7FFF27
:1004F0007FFF387F3B7F1C3F1F3F0F1F0F1F000FE9
:1005000000000000000000000000000000000000EB
:1005100000000000000000000000000000000000DB
:1005200000E0E0F0F0F8F8FCF8FCFCFEFCFEECFE6D
:10053000D4FEB4FEB4FEA8FCD8FCF0F8E0F000E075
:100540000009010B031F071F073F0F3F0F3F0F3F1E
:100550000F3F0F3F0F3F073F071F031F010B00090E
:1005600000000000008080C0C0E0E0F0E0F060F03B
:10057000A0F0A0F060F0C0E080C0008000000000AB
:100580000000003F3F7F7FFFFFFFFFFFFFFFFEFFF9
:10059000F9FFF7FFF7FFF8FF7FFF3F7F003F000005
:1005A000000000080008001C001D013F013F013F42
:1005B000013F013F013F001D001C00080008000032
:1005C0000000000000E0E0F8F8FCFCFEFEFFE6FFA3
:1005D0001AFFF6FF0CFEF8FCE0F800E00000000057
:1005E000000000000007071F1F3F3F7F7FFF7FFFC6
:1005F0007FFF7EFF3F7F1F3F071F000700000000B7
:100600000000000000080008001C001C003E003E26
:10061000003E003E001C001C000800080000000016
:100620000000000000000000008080C080C080C08A
:1006300080C080C080C0008000000000000000007A
:10064000000000FCFCFEFEFFFFFFFFFFFFFFF9FFC5
:10065000E6FFDEFFDDFFE3FFFEFFFCFE00FC000027
:10066000000000080009011F031F073F073F073F65
:10067000073F073F073F031F011F00090008000055
:1006800000F0D0F8D0F8B0FCB0FC70FE60FEE0FFE7
:10069000E6FF7CFE7CFEB8FCB8FCD0F8D0F800F099
:1006A00000E0A0F1A0F171FB41FFBBFFBBFF76FFB3
:1006B00076FFBBFFBBFF41FF71FBA0F1A0F100E0A3
:1006C000000F0F1F0F1F173F173F327F327F7DFF35
:1006D0007DFF3E7F3E7F1F3F1F3F0F1F0F1F000FFD
:1006E00000F0D0F8D0F8B8FCB8FC7CFE7CFEE6FF49
:1006F000E0FF60FE70FEB0FCB0FCD0F8D0F800F077
:1007000000E0A0F1A0F171FB41FFBBFFBBFF76FF52
:1007100076FFBBFFBBFF41FF71FBA0F1A0F100E042
:10072000000F0F1F0F1F1F3F1F3F3E7F3E7F7DFFAC
:100730007DFF327F327F173F173F0F1F0F1F000FC4
:1007400000F0D0F8D0F8B8FCB8FC7CFE7CFECEFF00
:100750000EFF0CFE1CFE98FC18FCD0F8D0F800F040
:1007600000E0A0F1A0F171FB41FFBBFFBBFF76FFF2
:1007700076FFBBFFB8FF41FF70FBA0F1A0F100E0E6
:10078000000F0F1F0F1F193F193F367F367F7DFF68
:100790007DFF3E7F3E7F1F3F1F3F0F1F0F1F000F3C
:1007A00000F0D0F8D0F818FC98FC1CFE0CFE0EFFF0
:1007B000CEFF7CFE7CFEB8FCB8FCD0F8D0F800F090
:1007C00000E0A0F1A0F170FB41FFB8FFBBFF76FF96
:1007D00076FFBBFFBBFF41FF71FBA0F1A0F100E082
:1007E000000F0F1F0F1F1F3F1F3F3E7F3E7F7DFFEC
:1007F0007DFF367F367F193F193F0F1F0F1F000FF8
:10080000081000FE00FE38FE38FE38FE00FE00FE36
:1008100000000027002702270027022700270027C3
:100820000000000000FF1CFF38FE38FE00FC000046
:1008300000000000001301270027024F004F0000B6
:1008400000000000000000FF1CFF00FC0000000092
:100850000000000000000013012F004F0000000006
:10086000000000000000000000FF00000000000089
:100870000000000000000000004F00000000000029
:1008800000000000000000FC1CFF00FF0000000052
:10089000000000000000004F012F001300000000C6
:1008A0000000000000FC38FE38FE1CFF00FF0000C6
:1008B00000000000004F024F002701270013000036
:1008C000000000FEFCFE3CFE3CFE3CFEFCFE00FE8A
:1008D00000000027032702270227022703270027FB
:1008E0000000000000FFFEFF3CFEF8FE00FC0000E0
:1008F00000000000001301270227074F004F0000EF
:1009000000000000000000FFFCFF00FC00000000F1
:100910000000000000000013012F004F0000000045
:10092000000000000000000000FF000000000000C8
:100930000000000000000000004F00000000000068
:1009400000000000000000FCFEFF00FF00000000AF
:10095000000000000000004F012F00130000000005
:100960000000000000FCF8FE3CFEFEFF00FF00005F
:1009700000000000004F074F02270127001300006E
:10098000000000FCA8FCA8FEA0FE80FE00FC00FC0D
:10099000000000270227022702270227022700273C
:1009A0000000000000FE54FEA0FE00FE00F8000063
:1009B00000000000001301270227044F004F000031
:1009C00000000000000000FE00FE00F80000000033
:1009D0000000000000000013002F004F0000000086
:1009E000000000000000000000FE00000000000009
:1009F0000000000000000000004F000000000000A8
:100A000000000000000000F800FE00FE00000000F2
:100A1000000000000000004F002F00130000000045
:100A20000000000000F800FEA0FE54FE00FE0000E2
:100A300000000000004F044F0227012700130000B0
:100A400000000038007C00FE08FE08FE107C003824
:100A500000000020002000200020002000200020B6
:100A600000000000001C00FE08FE20FE00700000D8
:100A700000000000001000200020004000400000A6
:100A8000000000000000001C00FE007000000000DC
:100A900000000000000000100020004000000000E6
:100AA000000000000000000000FE00000000000048
:100AB00000000000000000000040000000000000F6
:100AC000000000000000007000FE001C000000009C
:100AD00000000000000000400020001000000000A6
:100AE00000000000007000FE08FE08FE001C000070
:100AF0000000000000400040002000200010000026
:100B0000000000FCF8FC00FCA8FCA8FCF8FC00FCC1
:100B100000000027032700270227022703270027BA
:100B20000000000000FEFCFEA8FCF0FC00F8000045
:100B300000000000001301270227074F004F0000AC
:100B400000000000000000FEF0FE00F800000000C1
:100B50000000000000000013032F004F0000000001
:100B6000000000000000000000FE00000000000087
:100B70000000000000000000004F00000000000026
:100B800000000000000000F8F0FE00FE0000000081
:100B9000000000000000004F032F001300000000C1
:100BA0000000000000F8F0FCA8FCFCFE00FE0000C5
:100BB00000000000004F074F02270127001300002C
:100BC000000000F848FC48FC9CFE9CFE48FC48FCE9
:100BD00000F8003F017F017F02FF02FF017F017FDC
:100BE000003F00F888FC88FC1CFE1CFE88FC88FC8A
:100BF00000F8003F027F027F05FF05FF027F027FB2
:100C0000003F00F808FC08FC1CFE1CFE08FC08FC69
:100C100000F8003F057F057F0AFF0AFF057F057F7B
:100C2000003F00F808FC08FC1CFE1CFE08FC08FC49
:100C300000F8003F0A7F0A7F14FF14FF0A7F0A7F33
:100C4000003F00F808FC08FC1CFE1CFE08FC08FC29
:100C500000F8003F147F147F28FF28FF147F147FC3
:100C6000003F00F808FC08FC1CFE1CFE08FC08FC09
:100C700000F8003F287F287F50FF50FF287F287F03
:100C8000003F007858FC5CFEBEFFBEFF5CFE58FCD7
:100C90000078003C307E307E60FF60FF307E307E2A
:100CA000003C007858FC5CFEBEFFBEFF5CFE58FCBA
:100CB0000078003C307E307E60FF60FF307E307E0A
:100CC000003C007858FC5CFEBEFFBEFF5CFE58FC9A
:100CD0000078003C307E307E60FF60FF307E307EEA
:100CE000003C007840FC40FE80FF80FF40FE40FC5E
:100CF0000078003C307E307E60FF60FF307E307ECA
:100D0000003C007840FC40FE80FF80FF40FE40FC3D
:100D10000078003C307E307E60FF60FF307E307EA9
:100D2000003C007840FC40FE80FF80FF40FE40FC1D
:100D30000078003C307E307E60FF60FF307E307E89
:100D4000003C008080C0C0E0E0F0E0F0C0E080C087
:100D50000080003F3D7F3D7F7BFF7BFF3D7F3D7FF0
:100D6000003F008080C0C0E0E0F0E0F0C0E080C064
:100D70000080003F3D7F3D7F7BFF7BFF3D7F3D7FD0
:100D8000003F008080C0C0E0E0F0E0F0C0E080C044
:100D90000080003F3D7F3D7F7BFF7BFF3D7F3D7FB0
:100DA000003F008000C000E000F000F000E000C064
:100DB0000080003F027F027F04FF04FF027F027F6A
:100DC000003F008000C000E000F000F000E000C044
:100DD0000080003F027F027F04FF04FF027F027F4A
:100DE000003F008000C000E000F000F000E000C024
:100DF0000080003F027F027F04FF04FF027F027F2A
:100E0000003F16100000000000000000000000007D
:100E100080808080C0C0C0C0E0E0E0E0C0C0C0C052
:100E200080808080000000000000000000000000C2
:100E3000040404040E0E0E0E1F1F1F1F3F3F3F3FF2
:100E40007F7F7F7FFFFFFFFF7F7F7F7F3F3F3F3FB2
:100E50001F1F1F1F0E0E0E0E0404040400000000CE
:100E600000F0E0F010F8D0F838FCB8FC7CFE7CFE16
:100E7000FEFFFEFF7CFE7CFEB8FCB8FC50F850F88C
:100E8000A0F000F0000000000000000000070307D1
:100E9000000F070F001F0F1F003F1F3F007F2A7F1B
:100EA000153F153F0A1F0A1F050F050F0207000710
:100EB00000000000F0F008F8D0F0A0E040C0FEFE16
:100EC00001FFC6FE38F806FEF9FFC6FE38F870F0DE
:100ED0008CFC02FEFCFCC0C030F0CCFC02FEFCFC32
:100EE00004040707080F0F0F1E1F1D1F203F3F3F61
:100EF0007C7F437FFFFF8FFF717F7E7F3F3F203FDF
:100F00001B1F1C1F0F0F080F070704040000000021
:100F10000000808040C020E010F008F804FC02FED1
:100F2000ABFF55FF02FE04FC08F810F020E040C0C3
:100F3000808000000000000004040606090F080F6E
:100F4000101F101F203F203F407F407FAAFFD5FF8A
:100F5000407F407F203F203F101F101F080F090FC8
:100F6000060604040000000000000000008000806D
:100F700000C080C000E0C0E000E0E0E000E0C0E0D1
:100F800000C080C000800080000000000000000061
:100F9000000E040E001F0E1F003F1F3F207F2F7FFB
:100FA00070FF77FFF8FFFBFF70FF77FF207F2F7F39
:100FB000003F1F3F001F0E1F000E040E0A28204096
:100FC000402090CCE2FAF9FD9FEFE0F0E7E70F0751
:100FD000F7F93F1FDFE7F3FDFCFE7CBCF0F8F3F30D
:100FE00007037B7CFE7F0F03010602030000000065
:100FF000FDF9FAE2CC9020404020F9F7070FE7E72F
:10100000F0E0EF9FBC7CFEFCFDF3E7DF1F3F7FFEBF
:101010007C7B0307F3F3F8F00000000003020601F5
:10102000030F1710000000000000008080C0C0E027
:10103000C0E0E0F0F0F870F878FCB8FCDCFEDCFE14
:10104000EEFFECFE74FE70FC78FCF0F8F0F8E0F0D7
:1010500000E000F8F8FEFEFFFFFF1FFFE7FFFBFFC9
:101060007DFF1EFF0FFF07FF03FF03FF01FFFEFFD2
:10107000FEFFFFFFFFFFFFFF00FFFFFFFFFF00FF7F
:1010800000E0E0F0F0F8F0F878FC70FC74FEECFEA4
:10109000EEFFDCFEDCFEB8FC78FC70F8F0F8E0F067
:1010A000C0E0C0E080C0008000000000000000FF41
:1010B000FFFFFFFF00FFFFFFFFFFFFFFFEFFFEFF41
:1010C00001FF03FF03FF07FF0FFF1EFF7DFFFBFF75
:1010D000E7FF1FFFFFFFFEFFF8FE00F80000000023
:1010E0000000008080C0C0E0C0E0E0F0F0F870F8E0
:1010F00078FCB8FCDCFEDCFEEEFFECFE74FE70FC5F
:1011000078FCF0F8F0F8E0F000E000F8F8FEFEFF00
:10111000FFFF1FFFE7FFFBFF7DFF1E7F0F1F070F76
:101120000307030701FFFEFFFEFFFFFFFFFFFFFFB7
:1011300000FFFFFFFFFF00FF00E0E0F0F0F8F0F835
:1011400078FC70FC74FEECFEEEFFDCFEDCFEB8FC0E
:1011500078FC70F8F0F8E0F0C0E0C0E080C00080FB
:1011600000000000000000FFFFFFFFFF00FFFFFF87
:10117000FFFFFFFFFEFFFEFF01FF03070307070F4F
:101180000F1F1E3F7DFFFBFFE7FF1FFFFFFFFEFF5F
:10119000F8FE00F80F2000FF00FF00FF00FF00FF37
:1011A00000FFFFFF8FFF4FFF1FFFFFFF00FFFFFF4D
:1011B000FFFF00FF00FF00FF00FF00FF00FF00FF38
:1011C000FFFFFFFFFFFFFFFFFFFF00FFFFFFFFFF2E
:1011D00000FF80FFC0FFC0FFE0FFE0FFF0FFF7FF70
:1011E000EFFFEFFF5FFF5FFF007F3F7F1F3F003F8D
:1011F0000F1F070F070F0307030701030103000178
:10120000000100000000000000000000000000FFDE
:10121000FFFFFFFF00FFFFFF1FFF4FFF8FFFFFFFDD
:1012200000FF00FF00FF00FF00FF00FF00FFFFFFC7
:10123000FFFF00FFFFFFFFFFFFFFFFFFFFFF00FFBC
:1012400000FF00FF00FF00FF00FF003F1F3F3F7F48
:10125000007F5FFF5FFFEFFFEFFFF7FFF0FFE0FFB3
:10126000E0FFC0FFC0FF80FF0000000000000000A2
:101270000000000000010001010301030307030750
:10128000070F070F0F1F0000000000000000000004
:1012900000FFFFFF8FFF4FFF1FFFFFFF00FFFFFF5C
:1012A000FFFF00FF0000000000000000000000FF42
:1012B000FFFFFFFFFFFFFFFFFFFF00FFFFFFFFFF3D
:1012C00000FF80C0C0E0C0E0E0F0E0F0F0FFF7FF1A
:1012D000EFFFEFFF5FFF5FFF007F3F7F1F3F003F9C
:1012E0000F1F070F070F0307030701030103000187
:1012F000000100000000000000000000000000FFEE
:10130000FFFFFFFF00FFFFFF1FFF4FFF8FFFFFFFEC
:1013100000FF0000000000000000000000FFFFFFD1
:10132000FFFF00FFFFFFFFFFFFFFFFFFFFFF00FFCB
:1013300000000000000000000000003F1F3F3F7F52
:10134000007F5FFF5FFFEFFFEFFFF7FFF0FFE0F0D1
:10135000E0F0C0E0C0E080C000000000000000003D
:10136000000000000001000101030103030703075F
:10137000070F070F0F1F08200000000000000000EB
:1013800000FFFFFFFFFF00FF000000000000000063
:1013900000FFFFFFFFFF00FF000000000000000053
:1013A00000FFFFFFFFFF00FF000000000000000043
:1013B000007F1F3F1F3F001F00FFFFFFFFFF00FFD9
:1013C000000000000000000000FFFFFFFFFF00FF23
:1013D000000000000000000000FFFFFFFFFF00FF13
:1013E0000000000000000000001F1F3F1F3F003FE3
:1013F000000000000000000000FFFFFFFFFFFFFFF4
:1014000000FFFFFFFFFF00FF00FFFFFFFFFFFFFFE9
:1014100000FFFFFFFFFF00FF00FFFFFFFFFFFFFFD9
:1014200000FFFFFFFFFF00FF0007070F070F0F1F61
:10143000003F1F3F1F3F001F00FFFFFFFFFF00FF98
:10144000FFFFFFFFFFFF00FF00FFFFFFFFFF00FFA9
:10145000FFFFFFFFFFFF00FF00FFFFFFFFFF00FF99
:10146000FFFFFFFFFFFF00FF001F1F3F1F3F003F69
:101470000F1F070F070F00070A2000800000005011
:10148000000000A800000000AAAA0000555500AA0C
:1014900000000055000000AA00000000AAAA0020D9
:1014A000555500AA00000055000000AA00000000E9
:1014B000AAAA00005555000A00000005000000021D
:1014C0000000000002020000050555550000AAAA10
:1014D0000000000000A800000050000000805555EA
:1014E0000020AAAA0000000000AA00000055000089
:1014F00000AA55550000AAAA0000000000AA00009A
:101500000055000000AA05050000020200000000CE
:101510000002000000050000000A0000404000003A
:10152000A0A000000000000000000000000000007B
:1015300055550000AAAA000000000000000000208D
:101540000000000055550000AAAA0000000000009D
:10155000000000000000000005050000020200007D
:10156000000000000000000000000000000000007B
:10157000000000000000A8A800004040000000009B
:1015800000200000000000000000AAAA000055553D
:101590000000000000000000000000000000AAAAF7
:1015A0000000555500000000000000000000000091
:1015B00000000202000005050000151C121CB41BEF
:1015C0009F1B8A1B751B601B4B1B4A1B181C9D19FC
:1015D0000919FC18EF18E218D518C818BB18AE186E
:1015E000A118941887187A186D186018531846189F
:1015F0009E1903081F111F121F101D151711151F0B
:1016000007041F17151D1F151D01011F1F151F178B
:10161000151F03087F417F427F4079494F41497F31
:101620000F087F4F49797F497901017F7F497F4FBB
:10163000497F050800007E00007D7D00007F0606D2
:101640007670707676760000F0F0F70000707076B5
:1016500006060000760606FEFEFE0000000076008C
:101660000070707600000508FEFFFFFFFEFEBFBFA2
:10167000BFFEFEAFAFAFFEFEABABABFE07081F1168
:10168000151511111F07081F19191F1F1F1F050806
:101690000E1F1D190E020800FFFFFF5D0880BEA28D
:1016A000A280BEA2A2BE80BE84C990BE80BE8AEACD
:1016B000E2F8FFFFFF80AEAAAABA80BEA2A29C8079
:1016C000BE8AEAE288A29494A288FFFFFF88A2BEA5
:1016D000A280BE84C990BE80BE8AEAE280BEA2A279
:1016E000BE80FFFFFF80BE8AEAEE80BEA0AFAF8063
:1016F000BE9292BE80EE88B88EE0FFFF80BEA2AAA6
:1017000094C09EA0A09EC082BE82F882BE82F88055
:10171000BEA2A2BE80BE84C990BE80FFFF80AEAADA
:10172000AABA80BEA2A2A280BE8888BE80BEAAAA93
:10173000A280BE84E984BE80BEAAAAA280FFFFFF69
:10174000FFFF80B8B0AA868E80FFFFFFFFFF808E6C
:1017500086AAB0B880FFFFFFFFFFFFFFFFFFFFFF7C
:10176000FFFFFFFFFF80AEAAAABA80BEA2A2BE8082
:10177000BEA0A0BE80BE84C990BE80BEA2A29CC1F5
:10178000FFFFFFFFFF80BEA2A2BE80BE8AEAE2800A
:10179000BE8AEAE2F8FFFFFFFFFF80BEA2A2BE8082
:1017A000BE84C990BE80FFFFFFFFFFFFFFFFFFFF6A
:1017B000FFFFFFFF8040000000000000000000006D
:1017C0000000000000000000000000000000C060F9
:1017D0003058CC647266ECD8B060C0E038C8EC74A5
:1017E000747474747474747474E4ECECE8E8D8D0B1
:1017F00090B0206040C08080000000802020202029
:1018000020202020202020202020202020800000B8
:1018100000000000000000000000000000000000C8
:1018200000000000000000000000000000000000B8
:1018300000000000000000000000000000000000A8
:1018400000000000000000000080C0406020A0B147
:101850009B9E8C2E73F87F3F9FDE04F00EE3FC3ED0
:101860001F0F2F2F2F5F3FFFFEFEFE7E7C3DBDB979
:101870007BFBF7F7E6EE0CFD3B82F6ECE8DAB262B2
:10188000CA82028282828282AA82AA00002A800000
:1018900000000000000000000000A0080888888800
:1018A0008888888888888888888888080808A000A8
:1018B000000000000000000080E030C8ECE4F4F616
:1018C000767676746448D8D8ECE7F0FA7B3B93C719
:1018D0009FBF3F4FE03E03017C83387F70E7EFEF0F
:1018E000EFCFDEDEDEDEDE9FBFBFBCBC7C7C787867
:1018F0007370FF7F1FC3388FE0FFFFFFFFFFFFFF05
:101900007C81FE38000000000000802008A8AA2882
:10191000282828A828282828A8088A280A08A08A69
:101920008080808080808080AA8080AA0000AA00B9
:1019300000000000000080807FC01E7FFFFFE1CC20
:101940009EB3A1A1B192DCC1FFFF83FCB8E79F7FEA
:10195000FFFFFFFEFDFAFA3A89E5E6E8CEDEDEDEBD
:10196000DDBDBDBD797B7BFBF3F77767EFEFEFCF95
:101970005F5E5E5E4F617C7F477379FDFDFDFD7D9F
:10198000787B7A7A7A7274E4C890B2C0888A202010
:101990002020222220202802A02802000000022865
:1019A000A080000000000000000000000000AA006D
:1019B0008080808080808080808103F2FE05F5F742
:1019C000FBFBFBFBFDFDFDCDCEE666666666680FA4
:1019D000ECF5FBFBFDFDFDEDCDCD8D8B37C7FBFDA4
:1019E000FDFEFEFEFF03E7E6CE9E9DC23EDAE5F673
:1019F000F7F7F3F37373FFFFFFFFFFFEFEF900FF3E
:101A0000FFFFFFFFFFFF0FE626C6FEFEFEFEFDFA0C
:101A1000F408D0E8F4FAFAFAFAFA1AFAFAF4E890C2
:101A20007088F6F4F4E8E8E8E8D0A0A0A0A0AAA0A6
:101A30004080008080802020202020231FFEE11F86
:101A4000FFFFFFFFFFFFFFFFE01C6642424242A78D
:101A5000AC3BD3C7CFCFDFFFFFFF7F7FFE19171F40
:101A60001FDFDFBF3FF0B7FB1D1E1E11D05FDFBFC2
:101A70007FFFBFFF3C3C1FDFDFBF3FFFBFFD101FED
:101A80001F1FFFFF1F1F1C1BD8DFBF3FFF9FCFCFB4
:101A900063F0CF3F7FFFFFFFFFC7C6C7E77777033E
:101AA000F0FFFFFFFFFFFFFF07F3190919131313DF
:101AB000180F20202020A2A2A2A2A2A2A2A18F3EA3
:101AC000F1CFCFCFCF4FC7A7A7A6A7B3B3B3B3B3B9
:101AD000B9A9ACA4A4A4A4A4A4A4A6A2FF808080B5
:101AE00080BFB2DBCFF0BFFF80808080F7CE8CB7A5
:101AF000F8AFBFF0C0C080BFB2DBCFF0AFFF8080D7
:101B00008080FFFF80808080BFB4DBCFF0BFA2A2C7
:101B1000A2A2A3A3A2A4A4A4A4A4A4A4A4A2AEB079
:101B2000B3B3A7A7A7A727B89FA7A0A2A2A2A2A2C4
:101B3000A2A2A2A2A2A2AAAAAAAAAAAAAAAAAAAA35
:101B4000AAAAAAA8873CFF0000000000000000002D
:101B50000000000000000000000000000000000085
:101B60000000000000000000000000000000000075
:101B70000000000000000000000000000000000065
:101B80000000000000000000000000000000000055
:101B90000000000000000000000000000000000045
:101BA000000000000FA0AAAAAAAAAAAAAAAAAAAAE2
:101BB000AAAAAAAAAAAA1E1800C038C6E9ADE1D1ED
:101BC000DDDDE1FDFDFDFDFDFDFDFDFDFDFDF5BDE9
:101BD000F9C638C215020041060808C84848D000B6
:101BE000F81FDF5F5F9F3FFF18C0504808080808D4
:101BF00066610008205088502003813943988A8804
:101C00008B88898A888A889B423A03401238100060
:101C1000020060180000000000000000000000004A
:101C20000000000000000000000000007F415D5542
:101C3000577F416D6D517F4155555D7F416D6D41C0
:101C40007F057D417D057F4155555D7F415D5D632C
:101C50003E007F415D55497F117747711F000000AD
:101C60000000000000000000000000000000000074
:101C7000000000000000000000007F416D6D417F0A
:101C8000007F4175151D7F417F515555457F417737
:101C900077417F007F415D55577F416D6D417F41A9
:101CA0005F50507F415F50507F4155555D7F415D92
:101CB0005D633E007F415F685F417F416D6D417FA5
:101CC000417B77417F415D5D637F416D6D417F0069
:101CD00000000000007F416D6D417F417B77417FB7
:101CE000415D5D633E007F417D137D417F416D6DB0
:101CF000417F417B77417F117747711F007F417D95
:101D0000137D417F416D6D417F417B77417F11772D
:101D100047711F007F415D5D417F057D417D057FEE
:101D2000417777417F4155555D7F416D6D517F51C1
:101D30005555457F0308007F3E7F007F804010207F
:101D400020804010180000050010001B0021002614
:101D5000006C0074007D008C00A700AC00B100C0D6
:101D600000CF00F000F600FC000B0111015A0162E7
:101D70000166016C010612001640009D249F41FA85
:101D80000DA741F419A314A3FE41F40DA30DA31450
:101D9000A319A3FEFD0201FC02FEFC01FC02FEFCF5
:101DA00002FD0103FC044CFEFC044CFCFC044DFC55
:101DB00004FD0103FC044CFEFC044CFCFC044C033D
:101DC000FC04FD01034C07FC044C05FC044C03FD22
:101DD0000104FD01034C07FC044C05FC044C03FC0E
:101DE000044DFC04FE4030FD0203FD02019E07137A
:101DF0000017FD01059F31A72FA731A72CA728A702
:101E00002CA725AFFE31A733A734A733A734A731BA
:101E1000A733A731A733A72FA731A72FA731A7FE35
:101E20002DA731AFFE33A734AFFE38A736A738A7AA
:101E300034A72FA734A72CAFFE31A72FA731A72C8B
:101E4000A728A32CA725B3FE31A733A734A733A314
:101E500034A734A731A333A731A333A733A72FA3C4
:101E600031A72FA331A731A3FEA32DA331AFFEA32A
:101E700033A334AFFE38A736A738A734A72FA3342F
:101E8000A72CB3FE4000DFDFDFCF403041E8FD018B
:101E900008FC09FC0AFD0108FC09FC0BFD010C4CC7
:101EA00007FC09FC0A4DFD010C4C07FC09FC0B4D1D
:101EB000FD010DFC0EFC0FFD010DFC0EFC10FD01E3
:101EC000114C07FC0EFC0F4DFD01114C07FC0EFCE4
:101ED000104D9F4904402041FAAFFEFD0314FEFD62
:101EE0000215FD0214FC14FD0F15FC14FD0F159FC7
:101EF000000006011501260137014A015D0172014A
:101F000088019F01B801D201EE010B022A024B02A7
:101F10006E029302BA02E40210033F037003A403AB
:101F2000DC03170455049704DD0427057505C8056F
:101F300020067D06E0064907B8072D08A9082D09E7
:101F4000B9094D0AEA0A900B400CFA0CC00D910E2B
:101F50006F0F5A1053115B1272139A14D415201775
:101F60008018F519801B231DDE1EB420A622B5247F
:101F7000D5F08D14A1C881CFD9F1AF2000040000A5
:101F800003000B001C000100000040009F9DA040CA
:101F900030FD07029FFC034CFBFC034CFDFC034C93
:101FA000FFFC034C00FE41FC25AF29AF2CAFFEFD2A
:101FB00017C017691E8017421E1B1ECD20B3201CA0
:101FC0001A95207120F61F080B000202020000097A
:101FD0000400000102020000052400100105240194
:101FE00001010424020605240600010705810310EF
:101FF000004009040100020A000000070502024037
:1020000000000705830240000004030904120100D8
:1020100002EF020140412336800001010203014129
:10202000726475696E6F204C4C430041726475692F
:102030006E6F204C656F6E6172646F00E12A11242F
:102040001FBECFEFDAE0DEBFCDBF11E0A0E0B1E010
:10205000ECECF9E502C005900D92AE32B107D9F76C
:1020600027E0AEE2B1E001C01D92A03BB207E1F76C
:1020700010E1CFE1D0E104C02197FE010E94D72CEE
:10208000CE31D107C9F70E94002B0C94E42C0C949C
:1020900000008130A9F028F0823019F1833059F125
:1020A000089586E0689FF0011124E058F84F82817E
:1020B00093810197938382838081918102970EC0DF
:1020C00086E0689FF0011124E058F84F82819381E7
:1020D000019793838283808191810296918380838B
:1020E000089586E0689FF0011124E058F84F82813E
:1020F00093810196EECF86E0689FF0011124E058AD
:10210000F84F828193810196D5CFFC0180917805AB
:10211000882311F13FB7F89482E08093E900209181
:10212000F200822F90E01816190614F481E090E076
:10213000882339F0289844E6409377054091F100D0
:102140004083222339F02091F200211103C02BE6B5
:102150002093E8003FBF08958FEF9FEF08952FB7BA
:10216000F89483E08093E9009091E800892F8072D1
:1021700095FF04C09091F20080E4891B2FBF089561
:1021800080916F0581110DC082E080936B0584E022
:1021900080936C0510926E0510926D0581E080931E
:1021A0006F058BE695E00895CF93DF931F92CDB72F
:1021B000DEB76983DC01ED91FC910280F381E02DB3
:1021C00041E050E0BE016F5F7F4F09950F90DF91B6
:1021D000CF91089583E08093E9008091F2008823F5
:1021E00019F08AE38093E80008950E94AF1090E010
:1021F0000895CF93DF931F92CDB7DEB7FC0184859E
:10220000958597FD08C02FEF3FEF358724870F9006
:10221000DF91CF910895CE0101960E94851001971C
:1022200019F4898190E0F3CF8FEF9FEFF0CF0F93F8
:102230001F93CF93DF931F92CDB7DEB78C01FC01C4
:102240008485958597FF0BC0CE0101960E9485106D
:10225000019771F4898190E0F80195878487F801EE
:10226000848595850F90DF91CF911F910F910895EF
:102270008FEF9FEFF1CFFC018485958597FD0BC013
:102280009FB7F89482E08093E9008091F2009FBFAD
:1022900090E0019608959FB7F89482E08093E9005A
:1022A0008091F2009FBF90E00895409165055091A4
:1022B0006605209163053091640542175307B4F415
:1022C0009091E8009570E1F39091E80092FD19C0BB
:1022D0008093F100809165059091660501968F735A
:1022E0009927892B19F48EEF8093E800809165057A
:1022F000909166050196909366058093650581E04F
:10230000089580E00895EF92FF920F931F93CF936B
:10231000DF93F82E192FE62E042F81E0860F880F09
:102320000E94551183E00E945511CF2DD12FEC0E44
:10233000FD2EF11CCE15DF05B9F007FF13C0FE011D
:1023400084910E945511182F80E00E94551181231D
:1023500021968111EFCFDF91CF911F910F91FF90C7
:10236000EF9008958881EDCF81E0F5CFDF92EF9275
:10237000FF920F931F93CF93DF93D82E8A01EB0127
:102380007B01E40EF51ECE15DF0559F0D7FE12C015
:10239000FE0184910E94551121968111F4CF0FEF17
:1023A0001FEFC801DF91CF911F910F91FF90EF9028
:1023B000DF9008958881EECF0F931F93CF93DF9323
:1023C0001F92CDB7DEB782E0898342E450E067EC2C
:1023D0007FE180E80E94B6110E94C010DC011296D5
:1023E0000D911C910115110589F0D801ED91FC9119
:1023F0000280F381E02DBE016F5F7F4FC801099518
:1024000097FD04C0F80100851185ECCF89810F90FC
:10241000DF91CF911F910F910895615030F020917D
:10242000F100FC0120830196F8CF289884E6809380
:10243000770508953FB7F89480915F059091600506
:10244000A0916105B091620526B5A89B05C02F3FFC
:1024500019F00196A11DB11D3FBFBA2FA92F982FCA
:102460008827BC01CD01620F711D811D911D42E0C5
:10247000660F771F881F991F4A95D1F708958F928D
:102480009F92AF92BF92CF92DF92EF92FF926B0139
:102490007C010E941A124B015C01C114D104E104B9
:1024A000F104B9F00E941A12681979098A099B0986
:1024B000683E73408105910580F321E0C21AD1087E
:1024C000E108F10888EE880E83E0981EA11CB11C7B
:1024D000E4CFFF90EF90DF90CF90BF90AF909F90B0
:1024E0008F90089565E070E080E090E00C943F12DA
:1024F0008F929F92AF92BF92CF92DF92EF92FF9214
:102500000F931F93CF93DF936C017B018A0180911E
:102510000F01882309F45CC080917805882309F4B1
:1025200057C080916A0580FF05C08091E0008260FD
:102530008093E000E801B12C8AEFA82E93E0892E69
:102540002AE3922E209711F4BB20D9F10E94AF10FC
:1025500081110AC0AA94AA20D9F161E070E080E05C
:1025600090E00E943F12EECF8C171D0611F00CF088
:102570008C2F9FB7F8948092E9002091E80025FD08
:1025800002C09FBFDFCF282F30E0C21BD30BF70163
:10259000815020F041914093F100FACFE20EF31EFA
:1025A000BB2021F09092E800B12CEBCF8091E800A5
:1025B00085FDE7CF9092E800BB24B394209709F300
:1025C000F3CF5D9884E680936905101611063CF000
:1025D00081E090E0F6019383828310E000E0C8017F
:1025E000DF91CF911F910F91FF90EF90DF90CF90EF
:1025F000BF90AF909F908F90089590E0880F991FA3
:10260000E0915506F0915606E80FF91F85919491D7
:102610002091530630915406820F931F08954F92D4
:102620005F926F927F928F929F92AF92BF92CF9262
:10263000DF92EF92FF920F931F93CF93DF934C01A2
:102640005901FC2DC02FD0E0CE01880D991D181620
:1026500019060CF06CC020E8821691040CF067C0DB
:102660009B012E0D311D121613060CF060C0603454
:1026700071050CF05CC04115510509F458C0E62FF6
:10268000E770FE2EDB0177FD179633E0B595A79531
:102690003A95E1F73A2F77FF04C0FF2011F03FEFA2
:1026A0003A0F662777276819790997FC02C070E00E
:1026B00060E0803891050CF44BC090E89819961BA7
:1026C000A32F032E000CBB0B1A2F10953F3F0CF0CD
:1026D00010E021E08E2D877009F420E0E694E69466
:1026E000E694E20EAE0DB11D19971CF028E0E22E23
:1026F000E31AE11A310F20E83203D0011124A80DAA
:10270000B91DA60FB71F019F600D711D1124460F43
:10271000571F0F2D0F2C000C110BF33009F41CC1A7
:10272000C8F4F13009F4D0C0F23009F47CC0DF9174
:10273000CF911F910F91FF90EF90DF90CF90BF90BE
:10274000AF909F908F907F906F905F904F90089583
:10275000902FB5CFFA3FB1F1232F2E0DFB3F39F764
:10276000321729F3BD01685A7E4FD12CC12CC916EE
:1027700008F0A4C0FA01EC0DFD1DE491F0E04F015A
:10278000002E02C0880C991C0A94E2F737FD06C09F
:10279000FB018081E82CE0948E218083FF2061F092
:1027A000373054F45B01F0E8AF0EB11CE92CE09433
:1027B000F50180818E218083FFEFCF1ADF0A6F5FE2
:1027C0007F4FD5CF232F2E0D321709F4B0CFBD0187
:1027D000685A7E4FD12CC12CC91608F069C0FA0185
:1027E000EC0DFD1DE491F0E04F01002E02C0880CBD
:1027F000991C0A94E2F737FD04C0FB018081882907
:102800008083FF2051F0373044F45B01F0E8AF0ED5
:10281000B11CF501808189298083FFEFCF1ADF0A7F
:102820006F5F7F4FD9CF6FEF70E00F2C02C0660F44
:10283000771F0A94E2F760957095772E232F2E0D5F
:10284000321709F474CFFD01E85AFE4F6F01B12C25
:10285000A12CA91638F5FA01EA0DFB1DE491F0E070
:102860002F01002E02C0440C551C0A94E2F737FDDC
:1028700005C0F6018081862384298083FF2059F0DA
:1028800037304CF44601F0E88F0E911CF401808142
:10289000872185298083FFEFAF1ABF0A8FEFC81AFF
:1028A000D80AD7CF3F5F4C0F5D1FA058BF4FC8CF8E
:1028B0003F5F4C0F5D1FA058BF4F86CF3F5F4C0F4F
:1028C0005D1FA058BF4F4CCF6A0D7B1D232F2E0DCF
:1028D000321709F42CCFFD01E85AFE4F6F01B12CDD
:1028E000A12CA91688F5FB01EA0DFB1D8490912C03
:1028F000002E02C0880C991C0A94E2F780949094F0
:10290000FA01EA0DFB1D6490712C002E02C0660CCA
:10291000771C0A94E2F737FD05C0F6018081882113
:1029200086298083FF2049F037303CF4F601E058D7
:10293000FF4F8081892187298083FFEFAF1ABF0A6B
:102940008FEFC81AD80ACDCF3F5F4C0F5D1F6C0FB9
:102950007D1FA058BF4FBCCFC92ED12CFA01E60F66
:10296000F71FA85ABE4F00E810E00C191D09CC193A
:10297000DD09BE01660F771F41E050E06A010F2CB0
:1029800001C0CC0C0A94EAF7592F2E2D792ECF9343
:10299000DF93ED01EF96EF9622968590A590FF20AC
:1029A00059F08C9C4001AC9C500137302CF4E880ED
:1029B000B094EB20E928E99233233AF0EC90A0940C
:1029C000EA20E828ED920C94E61411965A9529F71E
:1029D0002A9551F0572D33951124E60FF11DA00FC4
:1029E000B11DC00FD11DD9CFDF91CF9111249FCE42
:1029F000CF92EF920F93FA0104913196E4904E5FDB
:102A00005F4F2223F9F0A1E0B0E03E2D377011F4C2
:102A1000B0E0A0E0EE2DE695E695E695EA0FFB2FF7
:102A2000F11D0E9FD0010F9FB00D112430E0220F39
:102A3000331FA29FF001A39FF00DB29FF00D112450
:102A40004E0F5F1F23E0C22E30E020E00E940F13E4
:102A50000F91EF90CF900895CF92EF920F93CF9375
:102A6000DF93DC01FA0104913196E4904E5F5F4FF1
:102A70002223D1F0C1E0D0E09E2D977011F4D0E078
:102A8000C0E0EE2DE695E695E695EC0FFD2FF11DE5
:102A90000E9FE0010F9FD00D11242C9FC0012D9F90
:102AA000900D1124480F591F8AEFC82E30E020E006
:102AB000CD010E940F13DF91CF910F91EF90CF9036
:102AC00008958FB18095807F669B88601C9B846091
:102AD0000895109253013E983F9808953E9A3F9A68
:102AE00081E080935301089590915805982329F42B
:102AF00090915905982381E009F480E0089596E0CB
:102B0000899FF0011124E058F84F8481282F30E08C
:102B100093E0359527959A95E1F72370660F6150FC
:102B2000260F220F220F220F2871877E282B248345
:102B30000895E091240685E0E89FF0011124EC5708
:102B4000FA4F81818F7D81830895CF92DF92EF923A
:102B5000FF9280914A01823059F4809190078770EA
:102B6000823009F44FC048F48823B9F0813099F1DC
:102B7000FF90EF90DF90CF900895843009F481C0EA
:102B800008F467C08530A1F780917E058068809346
:102B90007E058BE080930301EBCF80917F0585FD5F
:102BA000E7CF806280937F050E94991580914C0148
:102BB00090914D01A0914E01B0914F018C599F4FC2
:102BC000AF4FBF4F80934C0190934D01A0934E01A6
:102BD000B0934F01CDCF80917F05982F9871983198
:102BE00039F2885F80937F050E94991580914C018E
:102BF00090914D01A0914E01B0914F010A96A11DF7
:102C0000B11DE0CF80917D05C0904C01D0904D0169
:102C1000E0904E01F0904F01833098F48F5F8093E5
:102C20007D050E94991584E1C80ED11CE11CF11CA0
:102C3000C0924C01D0924D01E0924E01F0924F01B2
:102C400097CF0E94991582E3C80ED11CE11CF11C9C
:102C5000EFCF80917F05982F9770973009F488CF38
:102C60008F5F80937F050E94991580914C01909110
:102C70004D01A0914E01B0914F014E96A11DB11D85
:102C8000A1CF0E94991580914C0190914D01A09186
:102C90004E01B0914F0188539F4FAF4FBF4F92CF1E
:102CA000282F90917F0595FF2EC0905290937F051D
:102CB00040914C0150914D0160914E0170914F0136
:102CC00048515C4F6F4F7F4F40934C0150934D01E3
:102CD00060934E0170934F01E091240685E0E89FD8
:102CE000F0011124EC57FA4F81E090E0A0E0B0E051
:102CF00004C0880F991FAA1FBB1F2A95D2F7809581
:102D00009081892380830895282F90917F05892FB2
:102D1000887171F1985090937F0540914C015091CA
:102D20004D0160914E0170914F014E5C5F4F6F4FAE
:102D30007F4F40934C0150934D0160934E0170932F
:102D40004F01E091240685E0E89FF0011124EC5743
:102D5000FA4F81E090E0A0E0B0E004C0880F991F36
:102D6000AA1FBB1F2A95D2F7809590818923808363
:102D70000895A0915101B0915201AA0FBB1F2A9F43
:102D8000F0012B9FF00D1124660F771F57FD2CC00B
:102D9000443051054CF442305105E9F043305105BF
:102DA00019F14130510551F0680F791FE75AFF4F73
:102DB00081E0E617F70774F480E00CC09C01261B45
:102DC000370BB9012FE030E02E1B3F0B81E062177B
:102DD000730794F30895EA54FF4F680F791F81E059
:102DE000E617F707BCF3E8CF9C01261B370BB901A8
:102DF0002FEA3FEF2E1B3F0B81E02617370754F7D2
:102E0000DBCF50E021E00E94B916882379F1909140
:102E10007E0520918005392F33703230E9F133304F
:102E200009F459C0313019F1223001F5E09124063E
:102E300025E0E29FF0011124EC57FA4F208124FF96
:102E400015C020FD13C0906290937E052BE130E009
:102E500030937A05209379052091510130915201E8
:102E6000225E3F4F30937C0520937B0508952A30E6
:102E7000E9F7E091240625E0E29FF0011124EC57E8
:102E8000FA4F208125FFF2CF21FDF0CF9062909381
:102E90007E052BE430E0DCCF263141F7E0912406BB
:102EA00025E0E29FF0011124EC57FA4F208126FF24
:102EB000DDCF22FDDBCF906290937E052BE430E0E6
:102EC00030937A0520937905209151013091520178
:102ED0002A5C3F4FC7CF2E3049F6E091240625E00B
:102EE000E29FF0011124EC57FA4F208127FFBECF5B
:102EF00023FDBCCF906290937E052BE130E0E0CFC4
:102F000020E042E15CE164E170E080E190E00E9459
:102F10002C158CE00E947415811110920301089504
:102F20008091540180FD0AC0809147019091480131
:102F30009F5F9093480181508093470180914801A1
:102F4000803218F084E180934801809147018531F7
:102F500018F480E280934701089520E044EB57E1A4
:102F600070E060E090E080E00E942C152091030169
:102F70004BE956E168E370E081E190E00C942C1598
:102F8000CF93DF93C0914B018CE0C89FC02D1124DB
:102F9000CF5B0E94AD170E949017D0E0809148014E
:102FA00020E044E35DE168E370E08C0F9D2F911D0C
:102FB0000E94F8148091470120E044E35DE168E35A
:102FC00070E08C0F9D2F911D0E94F81480E40E94E8
:102FD0007415882319F084E080934B0180E20E94ED
:102FE0007415811110924B018CE00E9474158111AF
:102FF00010920301DF91CF9108950F931F93CF9308
:103000000E94AD170E949017C091010188E1C89FEE
:10301000800111248091480120E044E35DE168E3F0
:1030200070E0800F912F911D0E94F814809147014C
:1030300020E044E35DE168E370E0800F912F911D93
:103040000E94F81480E40E947415882329F0C3308C
:1030500018F4CF5FC093010180E20E9474158823A9
:1030600039F080910101882319F08150809301018A
:103070008CE00E947415882329F0809101018F5FF4
:1030800080930301CF911F910F9108956091510199
:1030900070915201615D7F4F21E048E754E183E187
:1030A00090E00C94F81460915101709152016A5CA7
:1030B0007F4F23E046E753E18DE190E00C94F81454
:1030C00060915101709152016A5C7F4F23E044E9A5
:1030D00051E18EE090E00C94F814609151017091F0
:1030E00052016A5D7F4F23E042E250E18EE090E0C2
:1030F0000C94F8146091510170915201615D7F4F01
:1031000020E048E754E189E590E00C94F8146091E0
:103110005101709152016A5C7F4F22E046E753E112
:1031200081E590E00C94F814609151017091520186
:103130006A5C7F4F22E044E951E189E590E00C941C
:10314000F81460915101709152016A5D7F4F22E045
:1031500042E250E181E590E00C94F8146091510155
:1031600070915201625F7F4F23E048E754E185E5AB
:1031700090E00C94F81460915101709152016B5ED3
:103180007F4F21E046E753E18FE590E00C94F8147F
:1031900060915101709152016B5E7F4F21E044E9D3
:1031A00051E180E590E00C94F81460915101709128
:1031B00052016B5F7F4F21E042E250E180E590E0F9
:1031C0000C94F8146091510170915201625F7F4F2D
:1031D00022E048E754E188E190E00C94F814609113
:1031E0005101709152016B5E7F4F20E046E753E141
:1031F00080E190E00C94F8146091510170915201BB
:103200006B5E7F4F20E044E951E188E190E00C944F
:10321000F81460915101709152016B5F7F4F20E073
:1032200042E250E180E190E00C94F814EF92FF92BA
:103230000F931F93CF93DF930EEF1FEFD0E0C0E00B
:10324000E0905101F0905201B701675E7F4F6C0F23
:103250007D1F20E04CEB5FE0C8010E942C15B701F8
:103260006C1B7D0B21E04CEB5FE0C801CE960E9409
:103270002C152597065F1F4FC23E8FEFD80701F729
:10328000DF91CF911F910F91FF90EF900895CF9212
:10329000DF92EF92FF920F931F93CF93DF93D0E0D3
:1032A000C0E080E3E82EF12C670110E000E06091BF
:1032B000510170915201655E7F4F600F711F6C0F5D
:1032C0007D1F20E042E05EE0C6010E94F8140A5F24
:1032D0001F4F8CE0C81AD1080E31110541F78CE060
:1032E000E80EF11C2696CE31D105F1F6DF91CF9193
:1032F0001F910F91FF90EF90DF90CF9008950F9363
:103300001F93CF93DF930E9416190E944719C5E2BD
:10331000D6E003E516E0E991F0E0EE0FFF1FE6547A
:10332000FA4E85919491FC0109950C171D0799F7A8
:10333000DF91CF911F910F910895089508959F9265
:10334000AF92BF92CF92DF92EF92FF920F931F93B3
:10335000CF93DF9325E0829FF0011124EC57FA4FC1
:10336000E180F12C3DE0839FA0011124C0E8D7E06B
:1033700007E010E0862F8150990BDC01AA0FBB1FDC
:10338000AF5EBE4F405F5F4F25E0A22E36E0B32E0A
:103390006CE0962E1C82C701002E02C09595879581
:1033A0000A94E2F780FF37C08D919C911197FA0142
:1033B000E01BF10BE80FF91F249130E083E0359515
:1033C00027958A95E1F7822F6A2D0E94A32C8B9D69
:1033D000B00111246C5F7F4F621B730B969E6001DE
:1033E000979ED00C112493E0C90ED11CD982C882BB
:1033F000B29EB001B39E700D11246E5E7F4F28EE19
:10340000382F2303C0011124860F971F9B838A83C3
:10341000E491E770EC8326960150110908F0BACFC9
:10342000DF91CF911F910F91FF90EF90DF90CF90A0
:10343000BF90AF909F9008953F924F925F926F928E
:103440007F928F929F92AF92BF92CF92DF92EF9234
:10345000FF920F931F93CF93DF93609150016F5FA3
:1034600060935001109224068CE08093800582EFD7
:103470009FEF909352018093510183E390E09093EA
:103480007A05809379058CE190E090937C05809398
:103490007B05862F8150990BFC01EE0FFF1FEF5E1D
:1034A000FE4F2081318140E050E095E0392E7DE0F3
:1034B000790190E1E90EF11C812C912C5401839447
:1034C000F9018491481708F05AC0042F10E0309E8B
:1034D000D001319EB00D1124AC57BA4FED012196A9
:1034E00011961C92119712961C92129713961C9289
:1034F000139714961C921497479FC0011124FC0146
:103500003496E20FF31FE491EC93A7E0B0E067017B
:10351000C80ED91EF601EA1BFB0BE491EE2369F0FD
:10352000E881240135010A2E04C0440C551C661C98
:10353000771C0A94D2F74E2A4882119758F7FC015B
:103540003B96E20FF31F849187708530B1F4F90147
:103550009491979FE02D1124EC5FE50FFF27FF1F4B
:10356000E20FF31FE491809FD001819FB00D1124E1
:10357000AC57BA4F1296EC935F5F4F5FA1CF80E0DC
:103580000E949F1986E080930301DF91CF911F91E4
:103590000F91FF90EF90DF90CF90BF90AF909F90F2
:1035A0008F907F906F905F904F903F9008959AEA30
:1035B000899FA001112485E591E0689F9001699F92
:1035C000300D1124CA01820F931F8FEC890F90E0F8
:1035D00064E0959587956A95E1F7982F990F990F73
:1035E000890F241B350B92E1930F92959F70890FE1
:1035F00008950F93CF93C22F57FD20C0443051053B
:103600004CF442305105B9F043305105B9F0413026
:10361000510571F0645088500E94D71A8093490177
:10362000E0914901E93168F080E0CF910F91089570
:103630006450885FF1CF6D5F8A5FEECF6D5F86501B
:10364000EBCFF0E0EB5DF94F828580934A018B313F
:1036500059F3CC2321F0893039F381E0E6CF011111
:1036600013C0882309F38930C1F780917E0583FD5B
:10367000F4CF90917D05915090937D05992339F079
:10368000886080937E05E9CF813069F7CDCF877F51
:103690008061F7CF0895E0E8F7E026A5277064A5DC
:1036A00075A58091510190915201680F791F675F54
:1036B0007F4F82A593A542E05EE003970C94F81437
:1036C000E0E8F7E020A5277066A177A1809151017D
:1036D00090915201680F791F675F7F4F84A195A178
:1036E00042E05EE003970C94F814E0E8F7E022A1D2
:1036F000277060A171A18091510190915201680FD2
:10370000791F675F7F4F868D978D42E05EE003975C
:103710000C94F814E0E8F7E0248D2770628D738D27
:103720008091510190915201680F791F675F7F4F1F
:10373000808D918D42E05EE003970C94F814E0E8F0
:10374000F7E02689277064897589809151019091ED
:103750005201680F791F675F7F4F8289938942E02A
:103760005EE003970C94F8148091540190915501F8
:1037700087709927892B41F4809191078F5F66E0CC
:103780000E94A32C90939107809190078770282F17
:10379000220F280F220F80919107280F60918E072A
:1037A00070918F078091510190915201680F791F9C
:1037B0006A5F7F4F80918C0790918D0740E058E0C1
:1037C00004960C94F81496E0899FF0011124E058B7
:1037D000F84F8481282F30E087708130C1F018F0D5
:1037E0008230C1F0089593E0359527959A95E1F7D9
:1037F0002370628173818091510190915201680F11
:10380000791F4EE753E0808191810C94F814258153
:103810002C5FEFCF83E0359527958A95E1F72370EC
:10382000285FE7CF81E00C94E31B80E00C94E31B5E
:10383000EF92FF920F931F93CF93DF9380917E05BA
:10384000182F1370012F000F87FF1CC0D0E0C0E0BD
:10385000E02EF12C60917B0570917C05665071091A
:103860006C0F7D1F6E197F098091790590917A0503
:1038700020E04CE153E004970E94F8142896C831E8
:10388000D10541F780917E0560917B0570917C05A3
:1038900024E084FD07C082FF0DC060917B0570911C
:1038A0007C05212F4AE351E08091790590917A05BA
:1038B0000E94F81480917E0587FF1BC0D0E0C0E015
:1038C00010E060917B0570917C056E5F7F4F6C0FFF
:1038D0007D1F601B710B8091790590917A0521E025
:1038E0004CE153E004970E94F8142896C831D105A2
:1038F00041F7DF91CF911F910F91FF90EF900895C5
:1039000040917E05842F807629F0809181058F5F1C
:1039100080938105809151019091520143702091D3
:10392000790530917A05423081F14330D1F141304F
:10393000A1F097FF08C00196909352018093510126
:103940002250310913C080917B0590917C0501972D
:1039500090937C0580937B05F3CF97FF0CC0019675
:1039600090935201809351012E5F3F4F30937A051F
:1039700020937905089580917B0590917C050197AE
:1039800090937C0580937B05EFCF833E4FEF9407A8
:1039900014F00197E5CF80917B0590917C0501960D
:1039A000EFCF833E4FEF940714F00197C5CF80917E
:1039B0007B0590917C050196CBCFEF92FF920F9300
:1039C0001F93CF93DF931092720021E030E0309389
:1039D000460120934501E8E5F6E048EDDF011D9240
:1039E0004A95E9F740EF4093100149E140935706AB
:1039F00041E752E05093440140934301309340012A
:103A000020933F013093200720931F0722E4209347
:103A1000C00021E02093C1002FEF2093D10020E8C7
:103A20002093CF00EC012196FC018491D09356069F
:103A3000C093550690E0880F991FC80FD91FCE017B
:103A40000496909354068093530638E5E32E36E0AF
:103A5000F32E10E000E0FE01E00FF11F84910E94C0
:103A6000FD12D7018D939C930F5F1F4FB6E3EB0EB2
:103A7000F11C0430110579F784E080937200DF9126
:103A8000CF911F910F91FF90EF900895CF92DF9209
:103A9000EF92FF920F931F93CF93DF934EE250E08C
:103AA0006BE170E085E296E00E94DD2CE091240657
:103AB0004E2F50E025E0E29FF0011124EC57FA4F21
:103AC000808184FF09C09BE0909325069CE0909341
:103AD00026069DE09093280680FF03C09EE0909309
:103AE000290685FF09C09FE090932A0690E19093F4
:103AF0002B0691E190932D0681FF03C092E19093F4
:103B00002E0686FF09C093E19093480694E19093B6
:103B1000490695E190934B0682FF03C096E190938E
:103B20004C0687FF09C097E190934D0698E190936A
:103B30004E0699E19093500683FF03C08AE180937B
:103B4000510680917E05982F907609F03FC0E09154
:103B50008005F0E0EB5DF94F89E0828785E0849F86
:103B6000F001859FF00D1124EC57FA4F018110E010
:103B700080E8C82E87E0D82ED0E0C0E097E0E92E9C
:103B8000F12CC7018C1B9D0BF80102C0F595E79540
:103B90008A95E2F7E0FF0AC0F601628180810E9407
:103BA000D71AE82FF0E0EB5DF94FC287219636E097
:103BB000C30ED11CC830D10521F7DF91CF911F91E1
:103BC0000F91FF90EF90DF90CF900895282F2072F3
:103BD000982F907483708230B1F0833001F181307E
:103BE00061F0222319F089E080932706992309F4D4
:103BF000B5CF89E080934A06B1CF2223B9F389E09B
:103C000080932C06F3CF222319F089E080934A0693
:103C1000992309F4A3CF89E0809327069FCF22231D
:103C200019F089E080934F06992309F497CF89E032
:103C300080932C0693CF809154019091550168E7B1
:103C400070E00E94AF2C892BA1F410927200E8E57D
:103C5000F6E088EDDF011D928A95E9F780EF809309
:103C6000100184E49DE10E94DD1C10924B01109232
:103C7000030120E046EB5BE164E170E081E390E06A
:103C80000C942C1510927200E8E5F6E088EDDF0147
:103C90001D928A95E9F780EF8093100110924C01F4
:103CA00010924D0110924E0110924F01E9E7F5E09C
:103CB00086E0858380E486838CE08783108683E0BA
:103CC0008483118612861092500188E0809303014C
:103CD0000895CF93DF93C091530182E1C89FC02D17
:103CE0001124C45D0E94AD170E949017D0E080910E
:103CF000480120E044E35DE168E370E08C0F9D2F14
:103D0000911D0E94F8148091470120E044E35DE199
:103D100068E370E08C0F9D2F911D0E94F81480E4E1
:103D20000E94741581110E946E1580E20E94741524
:103D300081110E9469158CE00E947415882379F026
:103D4000C091530182E090E00E948D2CC81729F0A9
:103D50006C2F82E090E00E94952C10920301DF917D
:103D6000CF9108953F924F925F926F927F928F9280
:103D70009F92AF92BF92CF92DF92EF92FF920F93FA
:103D80001F93CF93DF93CDB7DEB72A970FB6F89482
:103D9000DEBF0FBECDBFE82E862ECA01B9012AE0D4
:103DA000AE014F5F5F4F5A010E944C2CF50101900C
:103DB0000020E9F73197EA19FB096E2E8BEF089F77
:103DC000802D1124895F8E1B482E082E000C55086B
:103DD000011113C010E0E6E0FE2E14151504C4F422
:103DE0001F9DC001112420E042E356E166E370E02C
:103DF0008B960E942C151F5FF0CF18164CF420E014
:103E000042E156E170E060E089E790E00E942C1505
:103E1000F12C6201CC0CDD1CCC0CDD1CCE0CDF1CAB
:103E2000440C551C4C0C5D1C10E0062C000C770853
:103E3000912C76E0372E812F90E08615970584F53A
:103E4000F501E80FF91F20812133A4F020532A3017
:103E500088F4013089F00230C9F042E356E166E3AC
:103E600070E0C201139D800D911D11240E942C153C
:103E70001F5FE1CF20E0EDCF880F991F880F991FBA
:103E800042E156E1B4018C0D9D1DF0CF880F991FC2
:103E9000880F991F42EF55E1B4018E0D9F1DE6CFAB
:103EA0002A960FB6F894DEBF0FBECDBFDF91CF913B
:103EB0001F910F91FF90EF90DF90CF90BF90AF9048
:103EC0009F908F907F906F905F904F903F9008955C
:103ED0000F93CF93DF93D0E0C0E020E045E956E1B7
:103EE000BE0186E790E00E94F8142896C034D10500
:103EF000A1F72091240630E050E040E001E060E0CE
:103F000089E70E94B21E20917F05277030E050E0C3
:103F100040E002E067E18BE70E94B21E20E04EE83D
:103F200056E16DE170E08AE790E00E942C15209147
:103F30007F0530E083E0359527958A95E1F723707A
:103F40003327032E000C440B550B66E28BE70E94CF
:103F5000B21E20E045E856E16CE270E089E790E0AF
:103F60000E942C1520917F0525FB222720F930E0A7
:103F700050E040E065E38BE70E94B21E20E04CE792
:103F800056E16BE370E089E790E00E942C15809188
:103F90007E0520917F0584FF14C0206420937F0557
:103FA00080917F0586FF1EC020917D0546E656E183
:103FB0006BE070E08AE790E0DF91CF910F910C9475
:103FC0002C15809154019091550164E170E00E949C
:103FD000AF2C892B29F780917D05823008F780E48A
:103FE0002827DCCFDF91CF910F9108959091830521
:103FF0009F5F909383052091540130915501237068
:104000003327232B51F480917E05282F23702330F2
:1040100009F064C08C7F80937E059B3558F08091B9
:104020007E058F77846080937E051092830586E0FD
:10403000809303010E9416190E9447190E94681F6D
:104040000E94181C80915401909155016AE570E01E
:104050000E94AF2C892B09F043C0E091240665E053
:104060006E9FF0011124EC57FA4FE281E093240691
:1040700020918005822F0E94A32C96E0899FA001A9
:1040800011244C5F5F4F421B51093CE0349FB0014B
:10409000359F700D11246D5F7F4F70937A0560938B
:1040A0007905299F900111242E5E3F4F482F58EE2D
:1040B0005403C0011124820F931F209151013091AC
:1040C0005201820F931F90937C0580937B05109281
:1040D0008105609150018E2F0C949F198F5F9BCFAB
:1040E00008950F930E9416190E9447190E94681F95
:1040F0000E94181C20914C0130914D0140914E01BD
:1041000050914F0100E066E38BE20E94B21E8CE00A
:104110000E947415882339F01092030184E49DE114
:104120000F910C94DD1C0F9108950F930E941619A6
:104130000E9447190E94681F20914C0130914D0147
:1041400040914E0150914F0100E066E38BE20E94E6
:10415000B21E8CE00E947415882319F086E08093CB
:1041600003010F9108950E94461D0E947F198091BE
:104170008105853038F48091540180FF0E94801CB5
:104180000C94681F1092810580917E058F7B80932F
:104190007E0586E080930301F3CF6F927F928F922A
:1041A0009F92AF92BF92CF92DF92EF92FF920F93C6
:1041B0001F93CF93DF930E94461D0E947F19E091C9
:1041C0007E05E5FD3EC1E4FD69C08091540180FD9E
:1041D00042C0009151011091520160917B05601B1A
:1041E000809179050E94D71A893110F48093800557
:1041F000C0914B01D0E0FE01E45CF24EF4900E94CD
:1042000061158F21F81291C080917E058C7F80937B
:104210007E0560917B0570917C0540E08091790579
:1042200090917A050E940117811115C060917B055C
:1042300070917C05601B710B00E021E050E040E0D4
:104240008091790590917A050E94F91A882309F4E2
:1042500069C00E94A51588E00E947415882319F092
:1042600089E08093030184E00E9474158823B1F0F3
:104270009091800580917E058370823009F4D1C0D1
:10428000833009F4D6C0813009F4C3C0923031F4D0
:1042900080E00E94841680E00E94501680917E0586
:1042A00083FF98C1909182059F5F90938205209132
:1042B00054013091550123703327232B21F424E03E
:1042C000822780937E0580917E0524E08227913F9E
:1042D00008F079C180937E0580917E0584FD12C02F
:1042E000809154019091550166E070E00E94AF2CDE
:1042F000C0E8D7E0F9E0AF2EB12CADE08A2E892BD3
:1043000009F471C1DF91CF911F910F91FF90EF9050
:10431000DF90CF90BF90AF909F908F907F906F90E5
:104320000C94681F0E94801C96CFFE01E35CF24E45
:10433000F4900E9461158F21F8121EC080917E05B5
:104340008D7F816080937E0560917B0570917C05F7
:1043500041E08091790590917A050E9401178111C1
:104360007ACF60917B0570917C05601B710B00E03A
:1043700021E041E050E064CFFE01E25CF24EF490B7
:104380000E9461158F21F8121EC080917E058E7FDC
:10439000826080937E0560917B0570917C0542E090
:1043A0008091790590917A050E940117811153CF70
:1043B00060917B0570917C05601B710B00E021E032
:1043C00042E050E03DCFC15CD24EFE01C4910E945C
:1043D00061158C23C8133FCF80917E058360809345
:1043E0007E0560917B0570917C0543E080917905A5
:1043F00090917A050E94011781112DCF60917B0564
:1044000070917C05601B710B00E021E043E050E0FF
:1044100017CF9A3009F042CF81E00E94841681E0E4
:104420003BCF963109F03ACF82E00E94841682E0B9
:1044300033CF9E3009F032CF83E00E94841683E0B0
:104440002BCF80918105853038F48091540180FD17
:1044500025CF0E94801C22CF30915001832F8150A4
:10446000990BDC01AA0FBB1FAF5EBE4FE370F0E0FB
:104470003596809124069DE0899FE00DF11D112461
:104480008D919C91E80FF91F84918370823069F0BF
:10449000833009F479C0813009F07BC08AE08093D1
:1044A00080052AE047EF5FEF06C086E18093800534
:1044B00026E14DED5FEF5093520140935101E4919D
:1044C000F0E0F595E795F595E795E0932406822FC2
:1044D00065E00E94A32C682F70E0A6E08A9FC001CF
:1044E00011240496821B9109FCE0FF2EF89ED00156
:1044F000F99EB00D112413962A3009F454C008F027
:104500004DC0223009F452C00A0F1B1F10937A05C8
:1045100000937905A6E02A9FC0011124429618EE67
:104520001603D001179FB00D11248A0F9B1F2A304C
:1045300009F446C0F0F5223009F442C0C80FD91F73
:10454000C40FD51FD0937C05C0937B0510928105C5
:10455000632F8E2F0E949F1980917E058F7D80642E
:1045600080937E0587E080930301DF91CF911F91B7
:104570000F91FF90EF90DF90CF90BF90AF909F9002
:104580008F907F906F9008958EE0809380052EE04D
:1045900090CF82E08093800522E084CF2E3031F0EE
:1045A000263109F0B1CF0AE010E0AECF06EF1FEFE1
:1045B000ABCF2E3011F0263109F6C5E0D0E0BECFEA
:1045C000CBEFDFEFBBCF877F846080937E051092B7
:1045D000820582CE84FF84CE8AE0809303017CCE64
:1045E000EAE0AE2EB12C8D818F5F83708D83A09118
:1045F0005001A150BB0BAA0FBB1FAF5EBE4F8091F5
:104600002406F501889DE00DF11D1124CF01ED91E7
:10461000FC91E80FF91FE491EE2351F01C81E12E8B
:10462000F12C17701130C9F148F0123009F48DC027
:1046300026968AE0A816B10499F664CE63E0F59454
:10464000E7946A95E1F7F3E0EF22FF246A807B802C
:10465000C880D98020E0A701B301C6010E94B91625
:104660001A2D10951170811115C0012F20E0A7019E
:10467000B301C6010E94F91A81110CC08C8190E02F
:1046800023E0959587952A95E1F7612F83700E9425
:104690004910CECF61E0812F1AC053E0F594E79422
:1046A0005A95E1F723E0E222FF246A807B80C880EC
:1046B000D98020E0A701B301C6010E94B9169A2D46
:1046C0009170992E9126882329F061E0892D0E940E
:1046D0007F15AECF092D20E0A701B301C6010E94CE
:1046E000F91A8111F2CF8C8190E043E0959587957E
:1046F0004A95E1F7692D83700E944910EA80FB809A
:10470000C880D98043E350E08EE190E0F601FF27B6
:10471000D701BB279C012E513109BA016E177F07C3
:1047200031F489010E5E1F4FA017B10789F16C505B
:1047300071092A5F3F4F8217930781F70696445FFE
:104740005F4F8C33910531F773CF33E0F594E794E5
:104750003A95E1F733E0E322FF246A807B80C8804A
:10476000D98020E0A701B301C6010E94B9161A2D15
:1047700010951170882311F060E08DCF012F20E09B
:10478000A701B301C6010E94F91A8111F5CF76CFB6
:104790006C80712C83E0759467948A95E1F793E0BF
:1047A00069227724A1E06A1A710820E0A301B70109
:1047B000C6010E94B91681113BCF092D20E0A3014B
:1047C000B701C6010E94F91A811132CF60E07ECF95
:1047D0001F920F920FB60F9211248F939F93809187
:1047E000E1009091E100937F9093E10083FF0FC07F
:1047F0001092E90091E09093EB001092EC0092E3AC
:104800009093ED001092780598E09093F00082FF6D
:1048100022C093E09093E9009091F200992319F05F
:104820009AE39093E80090916905992341F0909163
:104830006905915090936905911101C05D9A90911D
:104840007705992341F090917705915090937705E2
:10485000911101C0289A84FF18C08091E2008E7ED9
:1048600081608093E2008091E1008F7E8093E1007F
:1048700080916A058E7E806180936A059F918F91F9
:104880000F900FBE0F901F90189580FFF7CF80916B
:10489000E2008E7E80618093E2008091E1008E7E56
:1048A0008093E10080916A058E7E8160E5CF1F9242
:1048B0000F920FB60F921124CF92DF92EF92FF92D8
:1048C0000F931F932F933F934F935F936F937F9318
:1048D0008F939F93AF93BF93EF93FF93CF93DF9308
:1048E000CDB7DEB76C97DEBFCDBF1092E9008091E7
:1048F000E80083FF25C068E0CE0145960E940D12B6
:1049000082EF8093E8008D8987FF39C09091E8009D
:1049100090FFFCCF982F907609F034C19E894F8983
:10492000588D2F89F88C911131C0803861F58091B4
:1049300068058093F1001092F1008EEF8093E800FB
:104940006C960FB6F894DEBF0FBECDBFDF91CF914E
:10495000FF91EF91BF91AF919F918F917F916F9157
:104960005F914F913F912F911F910F91FF90EF9089
:10497000DF90CF900F900FBE0F901F9018959EEF75
:104980009093E800C7CF1092F100D5CF913059F441
:104990008111D3CF4130510581F6809168058D7F1B
:1049A00080936805CACF933049F48111C6CF413056
:1049B000510519F6809168058260F2CF953041F477
:1049C0008091E80080FFFCCF20682093E300B5CF02
:1049D000963009F0A9C00B8D1C8D22E01092E900E1
:1049E0001092660510926505F2122EC010926405B1
:1049F000109263050E94DC111F8299E09983FA826C
:104A000091E09E8390EA98879AEF998720916505B7
:104A100030916605275F3F4F3C832B838D83109237
:104A2000E9001092660510926505109364050093E5
:104A3000630549E050E0BE016F5F7F4F80E00E9458
:104A4000B6110E94DC1179CF1093640500936305C1
:104A50000E94C010DC0112960D911C9101151105E8
:104A600009F451C1D801ED91FC910480F581E02D4C
:104A7000BE016B5E7F4FC8010995009709F03EC1EA
:104A8000F80100851185EACFF3E0FF120EC08F898F
:104A9000882309F440C0823061F440E860E18BE291
:104AA00090E20E948311811148CF81E28093EB0054
:104AB00047CF813029F440E86BE08FE190E2F1CFFD
:104AC000833099F70E94C010DC011296ED90FC90A3
:104AD0008E010F5F1F4F6801E114F10479F0D701D7
:104AE000ED91FC910680F781E02DB801C701099591
:104AF000080F111DF701E084F184EECFD8011C925C
:104B0000F60101900020E9F73197BF016C197D098A
:104B100040E0C601C6CF69E070E2FB01449150E07D
:104B200080E80E94B61109CF973009F4BECF9830C3
:104B300021F481E08093F10000CF993009F0FDCE9F
:104B4000837009F0B2CFE6E1F1E081E031E096E375
:104B50002191222371F08093E9003093EB00DF0173
:104B600011972C912093EC009093ED008F5F87308C
:104B700079F78EE78093EA001092EA008F8980939C
:104B80007805DBCE8B8D9C8D1092E9001092660526
:104B9000109265059093640580936305898D81115A
:104BA00092C08E899D89913A49F4813209F07DCF76
:104BB00047E050E068E071E080E0B3CF913209F067
:104BC00074CF833269F48F89988DB0E0A0E0809330
:104BD000040190930501A0930601B0930701ADCEA7
:104BE000803269F48091E80082FFFCCF67E088E0C2
:104BF00091E00E940D128BEF8093E8009ECE8232EE
:104C000009F09BCE8F8980930F01EEEFFFE785912E
:104C100094918B3F9C4D51F1E0E0F8E080910801C8
:104C200090910901A0910A01B0910B01803B944041
:104C3000A105B105F1F480910F0180FD1AC0EE3F8E
:104C40008AE0F80789F587E797E791838083809169
:104C500060008093670588E19BE00FB6F894A89503
:104C6000809360000FBE9093600067CEEEEFFAE095
:104C7000D5CF808191818737974709F05ECEA8957F
:104C800080916000886180936000809167058093C7
:104C90006000EE3F2AE0F20789F08091FE0A9091D1
:104CA000FF0A9183808349CE80819181873798075D
:104CB00051F29093FF0A8093FE0AC5CF1092FF0A2B
:104CC0001092FE0A3ACE0E94C010DC0112960D919D
:104CD0001C910115110509F4E8CED801ED91FC9164
:104CE0000190F081E02DBE016B5E7F4FC8010995F8
:104CF000811123CEF80100851185EBCF1816190616
:104D00000CF41BCED2CEF1E0FF12BECE6DE070E20D
:104D100004CF1F920F920FB60F9211242F933F933F
:104D20008F939F93AF93BF9380915B0590915C05A8
:104D3000A0915D05B0915E0530915A0523E0230FE7
:104D40002D3758F50196A11DB11D20935A0580936A
:104D50005B0590935C05A0935D05B0935E05809123
:104D60005F0590916005A0916105B0916205019683
:104D7000A11DB11D80935F0590936005A09361050F
:104D8000B0936205BF91AF919F918F913F912F9109
:104D90000F900FBE0F901F90189526E8230F0296D4
:104DA000A11DB11DD2CF2F923F924F925F926F9271
:104DB0007F928F929F92AF92BF92CF92DF92EF92AB
:104DC000FF920F931F93CF93DF933FE2C32E31E007
:104DD000D32EC8E5D6E010E000E0772473944BE1D1
:104DE000942E56E3852E69E0462E6DE3562E22243E
:104DF0002A94322CEEA5EE23A9F08FA59E2F937056
:104E0000891708F49BC0F0E0F595E795F595E795CF
:104E1000EE0FFF1FE051F14E85919491F6019283C0
:104E200081831FA69CA99923F9F08DA9292F2F779B
:104E3000022E000C330B821713060CF489C08A81F2
:104E400097FF7FC081508A838A8181117CC081E075
:104E50008A83EA81F0E0EE0FFF1FE051F14E859169
:104E600094919EA38DA31DAA58A5552321F13AA57F
:104E700029A5311119C0422F407426FF6CC08DA1A5
:104E80009EA1850F911D57FD9A9527FD69C097FD3D
:104E900065C0442309F466C0863BF4E29F0714F022
:104EA00085EB94E29EA38DA381E0830F8AA72F73E5
:104EB000321708F01AA69BA5992371F0EA81EE2318
:104EC00059F08DA52CA5482F4F71322F3F714317F4
:104ED00008F04AC08F5F8DA749A9442311F13AA970
:104EE000632F607436FF6CC08DA19EA12BA950E08A
:104EF00027FF69C0840F951F97FD68C0662309F4DA
:104F000069C0863B44E2940714F085EB94E29EA3CB
:104F10008DA33F71822F8F71831708F05DC02F5FC3
:104F20002BAB89A19AA1009709F45DC08F3F980728
:104F300009F49AC001979AA389A396C08F5F8FA79F
:104F400071CF8F5F80CF803408F483CF8FE380CF21
:104F50008F5F8DAB89CF8FA190E093CF90E080E001
:104F60004111A0CF8FA3A0CF807EF1F480E28DA766
:104F70008DA5807E51F09F3F09F1292F22952F703A
:104F8000E20F803411F49F70E90F88A9F0E0E80F78
:104F9000F11D87FDFA95EE0FFF1FE051F14E85914F
:104FA00094919EA38DA398CF803231F426FD04C046
:104FB0009F3F11F080E4DBCF1DA6DACFE0E0E1CF28
:104FC0008FA190E093CF841B950B96CF90E080E06B
:104FD00061119DCF8FA39DCF27FF02C01BAAA1CF38
:104FE00080E88BAB9ECFC8010496672C01C0660C8D
:104FF0008A95EAF7909E5001919EB00C1124809EF4
:10500000C001819E900D11249C01285A394F7901CD
:1050100088819981BC016F5F7F4F79836883FC0130
:105020004491403408F07CC04A83442319F088A995
:10503000480F4A83EA81F0E0EE0FFF1FE051F14E86
:10504000859194919EA38DA389A5811102C08FA5FE
:105050008FA38CA585FD1DA689A19AA10097C1F2F9
:105060008F3F980709F066CF20911001822F90E0C2
:10507000002E02C0959587950A94E2F780FD0AC03C
:10508000033009F0F4C18091210790E09595879550
:1050900080933E01207F39F5809178069091AE068D
:1050A000890F9091E406890F90911A07890F09F4EE
:1050B000E6C180E3A82E87E0B82E98E5E92E96E0B9
:1050C000F92EF70180A10E94FD12F70191838083E0
:1050D00012A211A2F6E3EF0EF11CAE14BF0489F781
:1050E00080EF809310010F5F1F4FE696F5E0CF0E23
:1050F000D11C0430110509F07DCEDF91CF911F91B5
:105100000F91FF90EF90DF90CF90BF90AF909F9066
:105110008F907F906F905F904F903F902F90089569
:10512000403A08F009C1E42FE054FF0BEC30F105E0
:1051300009F4BFC00CF04CC0E530F10509F4A2C081
:10514000F4F4E230F10509F49DC094F4309709F4C9
:1051500091C0319709F080CF029699838883FB0133
:10516000649168A780E0413409F080E489A774CF96
:10517000E330F10509F493C0349771F36DCFE83053
:10518000F10509F462C0A4F4E630F10509F487C022
:10519000379709F061CFFB0164916BA79C012D5FEC
:1051A0003F4F39832883FC013296E491ECA754CF1A
:1051B000EA30F10509F47BC002963B970CF471C00C
:1051C00099838883FB01849168A9680F68AB44CFF9
:1051D000E331F10509F477C064F5EF30F10509F426
:1051E00070C0DCF4ED30F10509F469C03E9709F0B8
:1051F00033CFFB012591349129AB9C012D5F3F4FAB
:1052000039832883FC0132962591349180E04E3415
:1052100009F080E4820F8AAB1FCFE131F10509F478
:1052200050C03CF3029699838883FB0164916CAB78
:1052300013CFEC35F10509F451C04CF4E431F1051C
:1052400009F443C0759709F007CF1BA605CFEE35CB
:10525000F10509F45CC00CF454C0EF35F10509F018
:10526000FBCE809110018625809310011FA23AA2E7
:1052700029A2F2CE029699838883FB0164916FA3E1
:105280006FA7EACEFB01649168A79C012D5F3F4F99
:1052900039832883FC013296E491E9A7DDCE18A674
:1052A000DBCE99838883FB0164916EA7D5CE1EA6C1
:1052B000D3CE029699838883FB01649187CF18AA85
:1052C000CBCE19AAC9CE1CAAC7CEFFEFFBA7029668
:1052D00099838883FB0164916CA7BECE0296998363
:1052E0008883FB016491E09157066E0F6093570627
:1052F00070E0C2010E94C32C70934401609343018B
:10530000ABCE029699838883FB016491EFCFA8E529
:10531000B6E021E030E0FC01E20FF31FE49190964B
:10532000EC9390972F5F3F4FD6962530310599F734
:1053300005969983888390CE403E28F44F59550BAB
:105340005AA349A389CE403EA9F4DE0190E080E053
:105350009695982F882797958795ED91FD91E491E3
:105360002E2F2F77822BE7FDF3CF8F5B9F4F9AA3D2
:1053700089A372CE4C3F08F46FCE24E0240F223074
:1053800008F039C04C3FA9F1029699838883FB014C
:105390006491E881F9819F012F5F3F4F3983288312
:1053A000E4915CA15E1701F14F8D842F90E07BA109
:1053B000D701A80FB91F51967C93519758965C93CB
:1053C000D501A80FB91FAA0FBB1FA85AB94F8091CA
:1053D000530690915406281B390B14963C932E9338
:1053E00013974F5F4F8FECA36BA38CA10E94FD120C
:1053F000A0CF60E0CECFDE0190E080E04E3F29F507
:105400008BA181111FC0EF8DEE2379F3E150EF8F57
:10541000F0E0D501AE0FBF1FAA0FBB1FA85AB94FAE
:10542000809153069091540613962D913C91820FD2
:10543000931F99838883EE0DFF1D81898BA3808D37
:105440008CA30ACE81508BA3D0CF9695982F882716
:1054500097958795ED91FD91E4913E2F3F77832BB2
:10546000E7FDF3CF680F791F79836883F5CD8DA1B0
:105470009EA1F601928381838FA180830BCE88ED5C
:10548000E8E5F6E011928A95E9F7109272002BCECA
:105490002F922FB62F9320912E01209520932E012D
:1054A00009F08BC0BF93AF930F921F9220913A01E6
:1054B00000903C01020E00923C0120913B011090B3
:1054C0003D01121E10923D01B12DB7FDB095BB0FED
:1054D000A0913901B058BA02110CA12D20913001D0
:1054E00000903201020E00923201209131011090A1
:1054F0003301121E10923301212D220F2121B09170
:105500002F0127FDB195AB0F209135010090370198
:10551000020E009237012091360110903801121EC0
:1055200010923801B091340117FCB195AB0FB1E086
:1055300000903F0110904001000C111C17FC0B263D
:1055400016FC0B2600923F0110924001B0913E01E3
:1055500017FCB195AB0FB0910001AB0FA093CF003A
:10556000B0914601A0914501119729F0B0934601F1
:10557000A09345011EC0B0914401A0914301B09396
:105580004601A093450178943F934F935F936F93A7
:105590007F938F939F93EF93FF9311240E94D326C1
:1055A000FF91EF919F918F917F916F915F914F91BB
:1055B0003F911F900F90AF91BF912F912FBE2F90D1
:1055C0001895E0E3F7E01382128288EE93E0A0E002
:1055D000B0E084839583A683B78380E291E09183D2
:1055E00080838FEF9FEF95878487E0E8F7E0148250
:1055F0001286108A168A148E12A210A616A6089574
:10560000789484B5826084BD84B5816084BD85B59D
:10561000826085BD85B5816085BD80916E008160A9
:1056200080936E001092810080918100826080934F
:105630008100809181008160809381008091800051
:1056400081608093800080919100826080939100BE
:1056500080919100816080939100809190008160A1
:10566000809390008091C10084608093C1008091FC
:10567000C10082608093C1008091C10081608093ED
:10568000C1008091C30081608093C3008091C000FD
:1056900082608093C0008091C20081608093C200CC
:1056A00080917A00846080937A0080917A00826091
:1056B00080937A0080917A00816080937A00809153
:1056C0007A00806880937A001092780510926805BD
:1056D00010926A058091D70081608093D70080EA9C
:1056E0008093D80089B5806189BD89B5826089BD04
:1056F00009B400FEFDCF61E070E080E090E00E9420
:105700003F128091D8008F7C80618093D800809177
:10571000E000807F8093E0008091E1008E7E8093A6
:10572000E1008DE08093E200559A209A81EC80930D
:105730007C0085B1806F85B984B1877E84B984B1DE
:10574000876E84B95E9A5F988AB1806D8AB9769ABD
:105750006E9881B3806F81BB899880B38D7080BB58
:1057600080E58CBD81E08DBD0E9472125F9A0E941F
:1057700072125E985C98E0E7FFE18DE79FE124916B
:105780002EBD00000DB407FEFDCF31968E179F078A
:10579000B1F75C9A81E88093640080916500816034
:1057A0008093650082E090E00E948D2C882341F177
:1057B0000E946E1580E1809302018DE79FE10E94B7
:1057C000DD1CEE24E394C8E5D1E000E010E0DD2428
:1057D000D3948FB7F89440915B0550915C0560912C
:1057E0005D0570915E058FBFF0905601FF2059F066
:1057F000109256010115110561F30E940000E9CFD6
:105800000E946915D7CF80915701942F981B892F3B
:1058100090910201891738F48F5F891758F7E3BE1A
:10582000889513BEE7CFD0925601409357018091DF
:105830005401909155010196909355018093540124
:1058400080915905809358050E94611580935905F0
:105850008F2DFE0181118FEF00248193819381931D
:1058600081930394D1F7E0910301F0E0EE0FFF1F65
:10587000E155F04E85919491FC010995FE0180E07F
:1058800098E000800EBCF110012C019780FDFDCF47
:105890000192B9F70DB4AECFBB272A3051F499234A
:1058A00042F4BDE290958095709561957F4F8F4F42
:1058B0009F4F0C945C2CBB27FA01A62F6217710531
:1058C00081059105330B30FB66F0AA27660F771F21
:1058D000881F991FAA1FA21710F0A21B63953850AA
:1058E000A9F7A05DAA3308F0A95DA19336F7B1111D
:1058F000B1931082CA010C947D2CDC01FC01672F4E
:1059000071917723E1F7329704C07C916D93708396
:105910006291AE17BF07C8F30895F999FECF92BD03
:1059200081BDF89A992780B50895262FF999FECF61
:105930001FBA92BD81BD20BD0FB6F894FA9AF99AAC
:105940000FBE01960895991B79E004C0991F961720
:1059500008F0961B881F7A95C9F780950895AA1BB1
:10596000BB1B51E107C0AA1FBB1FA617B70710F04A
:10597000A61BB70B881F991F5A95A9F7809590957C
:10598000BC01CD01089597FB072E16F4009407D0B3
:1059900077FD09D00E94AF2C07FC05D03EF490950E
:1059A00081959F4F0895709561957F4F0895EE0FF3
:1059B000FF1F0590F491E02D0994DC0101C06D9367
:0C59C00041505040E0F70895F894FFCFEC
:1059CC0080031005FFFFFFFF00E100000000000056
:1059DC00F0ED00AC0000C180810000000000000070
:0E59EC00D4107812F510EA103B11F9101711C3
:00000001FF
